{
  "_format": "hh-sol-artifact-1",
  "contractName": "AadhaarStorage",
  "sourceName": "contracts/AadharStorage.sol",
  "abi": [
    {
      "anonymous": false,
      "inputs": [
        {
          "indexed": true,
          "internalType": "address",
          "name": "user",
          "type": "address"
        },
        {
          "indexed": false,
          "internalType": "string",
          "name": "name",
          "type": "string"
        },
        {
          "indexed": false,
          "internalType": "string",
          "name": "dob",
          "type": "string"
        },
        {
          "indexed": false,
          "internalType": "string",
          "name": "gender",
          "type": "string"
        },
        {
          "indexed": false,
          "internalType": "string",
          "name": "aadhaarNumber",
          "type": "string"
        },
        {
          "indexed": false,
          "internalType": "string",
          "name": "fatherName",
          "type": "string"
        },
        {
          "indexed": false,
          "internalType": "string",
          "name": "userAddress",
          "type": "string"
        },
        {
          "indexed": false,
          "internalType": "string",
          "name": "pincode",
          "type": "string"
        },
        {
          "indexed": false,
          "internalType": "string",
          "name": "phoneNumber",
          "type": "string"
        }
      ],
      "name": "AadhaarDetailsStored",
      "type": "event"
    },
    {
      "inputs": [
        {
          "internalType": "address",
          "name": "",
          "type": "address"
        }
      ],
      "name": "aadhaarDetails",
      "outputs": [
        {
          "internalType": "string",
          "name": "name",
          "type": "string"
        },
        {
          "internalType": "string",
          "name": "dob",
          "type": "string"
        },
        {
          "internalType": "string",
          "name": "gender",
          "type": "string"
        },
        {
          "internalType": "string",
          "name": "aadhaarNumber",
          "type": "string"
        },
        {
          "internalType": "string",
          "name": "fatherName",
          "type": "string"
        },
        {
          "internalType": "string",
          "name": "userAddress",
          "type": "string"
        },
        {
          "internalType": "string",
          "name": "pincode",
          "type": "string"
        },
        {
          "internalType": "string",
          "name": "phoneNumber",
          "type": "string"
        }
      ],
      "stateMutability": "view",
      "type": "function"
    },
    {
      "inputs": [],
      "name": "deleteAadhaarDetails",
      "outputs": [],
      "stateMutability": "nonpayable",
      "type": "function"
    },
    {
      "inputs": [
        {
          "internalType": "address",
          "name": "user",
          "type": "address"
        }
      ],
      "name": "getAadhaarDetails",
      "outputs": [
        {
          "components": [
            {
              "internalType": "string",
              "name": "name",
              "type": "string"
            },
            {
              "internalType": "string",
              "name": "dob",
              "type": "string"
            },
            {
              "internalType": "string",
              "name": "gender",
              "type": "string"
            },
            {
              "internalType": "string",
              "name": "aadhaarNumber",
              "type": "string"
            },
            {
              "internalType": "string",
              "name": "fatherName",
              "type": "string"
            },
            {
              "internalType": "string",
              "name": "userAddress",
              "type": "string"
            },
            {
              "internalType": "string",
              "name": "pincode",
              "type": "string"
            },
            {
              "internalType": "string",
              "name": "phoneNumber",
              "type": "string"
            }
          ],
          "internalType": "struct AadhaarStorage.AadhaarDetails",
          "name": "",
          "type": "tuple"
        }
      ],
      "stateMutability": "view",
      "type": "function"
    },
    {
      "inputs": [
        {
          "internalType": "string",
          "name": "_aadhaarNumber",
          "type": "string"
        }
      ],
      "name": "storeAadhaarNumber",
      "outputs": [],
      "stateMutability": "nonpayable",
      "type": "function"
    },
    {
      "inputs": [
        {
          "internalType": "string",
          "name": "_dob",
          "type": "string"
        }
      ],
      "name": "storeDob",
      "outputs": [],
      "stateMutability": "nonpayable",
      "type": "function"
    },
    {
      "inputs": [
        {
          "internalType": "string",
          "name": "_fatherName",
          "type": "string"
        }
      ],
      "name": "storeFatherName",
      "outputs": [],
      "stateMutability": "nonpayable",
      "type": "function"
    },
    {
      "inputs": [
        {
          "internalType": "string",
          "name": "_gender",
          "type": "string"
        }
      ],
      "name": "storeGender",
      "outputs": [],
      "stateMutability": "nonpayable",
      "type": "function"
    },
    {
      "inputs": [
        {
          "internalType": "string",
          "name": "_name",
          "type": "string"
        }
      ],
      "name": "storeName",
      "outputs": [],
      "stateMutability": "nonpayable",
      "type": "function"
    },
    {
      "inputs": [
        {
          "internalType": "string",
          "name": "_phoneNumber",
          "type": "string"
        }
      ],
      "name": "storePhoneNumber",
      "outputs": [],
      "stateMutability": "nonpayable",
      "type": "function"
    },
    {
      "inputs": [
        {
          "internalType": "string",
          "name": "_pincode",
          "type": "string"
        }
      ],
      "name": "storePincode",
      "outputs": [],
      "stateMutability": "nonpayable",
      "type": "function"
    },
    {
      "inputs": [
        {
          "internalType": "string",
          "name": "_userAddress",
          "type": "string"
        }
      ],
      "name": "storeUserAddress",
      "outputs": [],
      "stateMutability": "nonpayable",
      "type": "function"
    }
  ],
  "bytecode": "0x608060405234801561001057600080fd5b50612d3b806100206000396000f3fe608060405234801561001057600080fd5b50600436106100a95760003560e01c80636824b070116100715780636824b07014610157578063684f9fe814610173578063924e6f7f1461018f57806395f02cde146101ab578063e697ffb6146101c7578063ec9eb117146101e3576100a9565b8063063cfccb146100ae57806330b6c4c0146100ca578063509183c5146100e657806355f1f3dc1461011d57806361d64c351461014d575b600080fd5b6100c860048036038101906100c3919061223a565b6101ff565b005b6100e460048036038101906100df919061223a565b610474565b005b61010060048036038101906100fb9190612211565b6106e9565b60405161011498979695949392919061248e565b60405180910390f35b61013760048036038101906101329190612211565b610b71565b6040516101449190612b14565b60405180910390f35b61015561105a565b005b610171600480360381019061016c919061223a565b6111ae565b005b61018d6004803603810190610188919061223a565b611423565b005b6101a960048036038101906101a4919061223a565b611698565b005b6101c560048036038101906101c0919061223a565b61190d565b005b6101e160048036038101906101dc919061223a565b611b82565b005b6101fd60048036038101906101f8919061223a565b611df7565b005b806000803373ffffffffffffffffffffffffffffffffffffffff1673ffffffffffffffffffffffffffffffffffffffff168152602001908152602001600020600001908051906020019061025492919061206c565b503373ffffffffffffffffffffffffffffffffffffffff167f155f5b4d92149b26ef125abc0a307e7a39f79a322c216807302b6b52ee5a4819826000803373ffffffffffffffffffffffffffffffffffffffff1673ffffffffffffffffffffffffffffffffffffffff1681526020019081526020016000206001016000803373ffffffffffffffffffffffffffffffffffffffff1673ffffffffffffffffffffffffffffffffffffffff1681526020019081526020016000206002016000803373ffffffffffffffffffffffffffffffffffffffff1673ffffffffffffffffffffffffffffffffffffffff1681526020019081526020016000206003016000803373ffffffffffffffffffffffffffffffffffffffff1673ffffffffffffffffffffffffffffffffffffffff1681526020019081526020016000206004016000803373ffffffffffffffffffffffffffffffffffffffff1673ffffffffffffffffffffffffffffffffffffffff1681526020019081526020016000206005016000803373ffffffffffffffffffffffffffffffffffffffff1673ffffffffffffffffffffffffffffffffffffffff1681526020019081526020016000206006016000803373ffffffffffffffffffffffffffffffffffffffff1673ffffffffffffffffffffffffffffffffffffffff168152602001908152602001600020600701604051610469989796959493929190612544565b60405180910390a250565b806000803373ffffffffffffffffffffffffffffffffffffffff1673ffffffffffffffffffffffffffffffffffffffff16815260200190815260200160002060020190805190602001906104c992919061206c565b503373ffffffffffffffffffffffffffffffffffffffff167f155f5b4d92149b26ef125abc0a307e7a39f79a322c216807302b6b52ee5a48196000803373ffffffffffffffffffffffffffffffffffffffff1673ffffffffffffffffffffffffffffffffffffffff1681526020019081526020016000206000016000803373ffffffffffffffffffffffffffffffffffffffff1673ffffffffffffffffffffffffffffffffffffffff168152602001908152602001600020600101846000803373ffffffffffffffffffffffffffffffffffffffff1673ffffffffffffffffffffffffffffffffffffffff1681526020019081526020016000206003016000803373ffffffffffffffffffffffffffffffffffffffff1673ffffffffffffffffffffffffffffffffffffffff1681526020019081526020016000206004016000803373ffffffffffffffffffffffffffffffffffffffff1673ffffffffffffffffffffffffffffffffffffffff1681526020019081526020016000206005016000803373ffffffffffffffffffffffffffffffffffffffff1673ffffffffffffffffffffffffffffffffffffffff1681526020019081526020016000206006016000803373ffffffffffffffffffffffffffffffffffffffff1673ffffffffffffffffffffffffffffffffffffffff1681526020019081526020016000206007016040516106de9897969594939291906126b0565b60405180910390a250565b600060205280600052604060002060009150905080600001805461070c90612c4d565b80601f016020809104026020016040519081016040528092919081815260200182805461073890612c4d565b80156107855780601f1061075a57610100808354040283529160200191610785565b820191906000526020600020905b81548152906001019060200180831161076857829003601f168201915b50505050509080600101805461079a90612c4d565b80601f01602080910402602001604051908101604052809291908181526020018280546107c690612c4d565b80156108135780601f106107e857610100808354040283529160200191610813565b820191906000526020600020905b8154815290600101906020018083116107f657829003601f168201915b50505050509080600201805461082890612c4d565b80601f016020809104026020016040519081016040528092919081815260200182805461085490612c4d565b80156108a15780601f10610876576101008083540402835291602001916108a1565b820191906000526020600020905b81548152906001019060200180831161088457829003601f168201915b5050505050908060030180546108b690612c4d565b80601f01602080910402602001604051908101604052809291908181526020018280546108e290612c4d565b801561092f5780601f106109045761010080835404028352916020019161092f565b820191906000526020600020905b81548152906001019060200180831161091257829003601f168201915b50505050509080600401805461094490612c4d565b80601f016020809104026020016040519081016040528092919081815260200182805461097090612c4d565b80156109bd5780601f10610992576101008083540402835291602001916109bd565b820191906000526020600020905b8154815290600101906020018083116109a057829003601f168201915b5050505050908060050180546109d290612c4d565b80601f01602080910402602001604051908101604052809291908181526020018280546109fe90612c4d565b8015610a4b5780601f10610a2057610100808354040283529160200191610a4b565b820191906000526020600020905b815481529060010190602001808311610a2e57829003601f168201915b505050505090806006018054610a6090612c4d565b80601f0160208091040260200160405190810160405280929190818152602001828054610a8c90612c4d565b8015610ad95780601f10610aae57610100808354040283529160200191610ad9565b820191906000526020600020905b815481529060010190602001808311610abc57829003601f168201915b505050505090806007018054610aee90612c4d565b80601f0160208091040260200160405190810160405280929190818152602001828054610b1a90612c4d565b8015610b675780601f10610b3c57610100808354040283529160200191610b67565b820191906000526020600020905b815481529060010190602001808311610b4a57829003601f168201915b5050505050905088565b610b796120f2565b6000808373ffffffffffffffffffffffffffffffffffffffff1673ffffffffffffffffffffffffffffffffffffffff16815260200190815260200160002060405180610100016040529081600082018054610bd390612c4d565b80601f0160208091040260200160405190810160405280929190818152602001828054610bff90612c4d565b8015610c4c5780601f10610c2157610100808354040283529160200191610c4c565b820191906000526020600020905b815481529060010190602001808311610c2f57829003601f168201915b50505050508152602001600182018054610c6590612c4d565b80601f0160208091040260200160405190810160405280929190818152602001828054610c9190612c4d565b8015610cde5780601f10610cb357610100808354040283529160200191610cde565b820191906000526020600020905b815481529060010190602001808311610cc157829003601f168201915b50505050508152602001600282018054610cf790612c4d565b80601f0160208091040260200160405190810160405280929190818152602001828054610d2390612c4d565b8015610d705780601f10610d4557610100808354040283529160200191610d70565b820191906000526020600020905b815481529060010190602001808311610d5357829003601f168201915b50505050508152602001600382018054610d8990612c4d565b80601f0160208091040260200160405190810160405280929190818152602001828054610db590612c4d565b8015610e025780601f10610dd757610100808354040283529160200191610e02565b820191906000526020600020905b815481529060010190602001808311610de557829003601f168201915b50505050508152602001600482018054610e1b90612c4d565b80601f0160208091040260200160405190810160405280929190818152602001828054610e4790612c4d565b8015610e945780601f10610e6957610100808354040283529160200191610e94565b820191906000526020600020905b815481529060010190602001808311610e7757829003601f168201915b50505050508152602001600582018054610ead90612c4d565b80601f0160208091040260200160405190810160405280929190818152602001828054610ed990612c4d565b8015610f265780601f10610efb57610100808354040283529160200191610f26565b820191906000526020600020905b815481529060010190602001808311610f0957829003601f168201915b50505050508152602001600682018054610f3f90612c4d565b80601f0160208091040260200160405190810160405280929190818152602001828054610f6b90612c4d565b8015610fb85780601f10610f8d57610100808354040283529160200191610fb8565b820191906000526020600020905b815481529060010190602001808311610f9b57829003601f168201915b50505050508152602001600782018054610fd190612c4d565b80601f0160208091040260200160405190810160405280929190818152602001828054610ffd90612c4d565b801561104a5780601f1061101f5761010080835404028352916020019161104a565b820191906000526020600020905b81548152906001019060200180831161102d57829003601f168201915b5050505050815250509050919050565b60008060003373ffffffffffffffffffffffffffffffffffffffff1673ffffffffffffffffffffffffffffffffffffffff16815260200190815260200160002060030180546110a890612c4d565b905014156110eb576040517f08c379a00000000000000000000000000000000000000000000000000000000081526004016110e290612af4565b60405180910390fd5b6000803373ffffffffffffffffffffffffffffffffffffffff1673ffffffffffffffffffffffffffffffffffffffff1681526020019081526020016000206000808201600061113a9190612137565b60018201600061114a9190612137565b60028201600061115a9190612137565b60038201600061116a9190612137565b60048201600061117a9190612137565b60058201600061118a9190612137565b60068201600061119a9190612137565b6007820160006111aa9190612137565b5050565b806000803373ffffffffffffffffffffffffffffffffffffffff1673ffffffffffffffffffffffffffffffffffffffff168152602001908152602001600020600301908051906020019061120392919061206c565b503373ffffffffffffffffffffffffffffffffffffffff167f155f5b4d92149b26ef125abc0a307e7a39f79a322c216807302b6b52ee5a48196000803373ffffffffffffffffffffffffffffffffffffffff1673ffffffffffffffffffffffffffffffffffffffff1681526020019081526020016000206000016000803373ffffffffffffffffffffffffffffffffffffffff1673ffffffffffffffffffffffffffffffffffffffff1681526020019081526020016000206001016000803373ffffffffffffffffffffffffffffffffffffffff1673ffffffffffffffffffffffffffffffffffffffff168152602001908152602001600020600201856000803373ffffffffffffffffffffffffffffffffffffffff1673ffffffffffffffffffffffffffffffffffffffff1681526020019081526020016000206004016000803373ffffffffffffffffffffffffffffffffffffffff1673ffffffffffffffffffffffffffffffffffffffff1681526020019081526020016000206005016000803373ffffffffffffffffffffffffffffffffffffffff1673ffffffffffffffffffffffffffffffffffffffff1681526020019081526020016000206006016000803373ffffffffffffffffffffffffffffffffffffffff1673ffffffffffffffffffffffffffffffffffffffff168152602001908152602001600020600701604051611418989796959493929190612766565b60405180910390a250565b806000803373ffffffffffffffffffffffffffffffffffffffff1673ffffffffffffffffffffffffffffffffffffffff168152602001908152602001600020600401908051906020019061147892919061206c565b503373ffffffffffffffffffffffffffffffffffffffff167f155f5b4d92149b26ef125abc0a307e7a39f79a322c216807302b6b52ee5a48196000803373ffffffffffffffffffffffffffffffffffffffff1673ffffffffffffffffffffffffffffffffffffffff1681526020019081526020016000206000016000803373ffffffffffffffffffffffffffffffffffffffff1673ffffffffffffffffffffffffffffffffffffffff1681526020019081526020016000206001016000803373ffffffffffffffffffffffffffffffffffffffff1673ffffffffffffffffffffffffffffffffffffffff1681526020019081526020016000206002016000803373ffffffffffffffffffffffffffffffffffffffff1673ffffffffffffffffffffffffffffffffffffffff168152602001908152602001600020600301866000803373ffffffffffffffffffffffffffffffffffffffff1673ffffffffffffffffffffffffffffffffffffffff1681526020019081526020016000206005016000803373ffffffffffffffffffffffffffffffffffffffff1673ffffffffffffffffffffffffffffffffffffffff1681526020019081526020016000206006016000803373ffffffffffffffffffffffffffffffffffffffff1673ffffffffffffffffffffffffffffffffffffffff16815260200190815260200160002060070160405161168d98979695949392919061281c565b60405180910390a250565b806000803373ffffffffffffffffffffffffffffffffffffffff1673ffffffffffffffffffffffffffffffffffffffff16815260200190815260200160002060010190805190602001906116ed92919061206c565b503373ffffffffffffffffffffffffffffffffffffffff167f155f5b4d92149b26ef125abc0a307e7a39f79a322c216807302b6b52ee5a48196000803373ffffffffffffffffffffffffffffffffffffffff1673ffffffffffffffffffffffffffffffffffffffff168152602001908152602001600020600001836000803373ffffffffffffffffffffffffffffffffffffffff1673ffffffffffffffffffffffffffffffffffffffff1681526020019081526020016000206002016000803373ffffffffffffffffffffffffffffffffffffffff1673ffffffffffffffffffffffffffffffffffffffff1681526020019081526020016000206003016000803373ffffffffffffffffffffffffffffffffffffffff1673ffffffffffffffffffffffffffffffffffffffff1681526020019081526020016000206004016000803373ffffffffffffffffffffffffffffffffffffffff1673ffffffffffffffffffffffffffffffffffffffff1681526020019081526020016000206005016000803373ffffffffffffffffffffffffffffffffffffffff1673ffffffffffffffffffffffffffffffffffffffff1681526020019081526020016000206006016000803373ffffffffffffffffffffffffffffffffffffffff1673ffffffffffffffffffffffffffffffffffffffff1681526020019081526020016000206007016040516119029897969594939291906125fa565b60405180910390a250565b806000803373ffffffffffffffffffffffffffffffffffffffff1673ffffffffffffffffffffffffffffffffffffffff168152602001908152602001600020600601908051906020019061196292919061206c565b503373ffffffffffffffffffffffffffffffffffffffff167f155f5b4d92149b26ef125abc0a307e7a39f79a322c216807302b6b52ee5a48196000803373ffffffffffffffffffffffffffffffffffffffff1673ffffffffffffffffffffffffffffffffffffffff1681526020019081526020016000206000016000803373ffffffffffffffffffffffffffffffffffffffff1673ffffffffffffffffffffffffffffffffffffffff1681526020019081526020016000206001016000803373ffffffffffffffffffffffffffffffffffffffff1673ffffffffffffffffffffffffffffffffffffffff1681526020019081526020016000206002016000803373ffffffffffffffffffffffffffffffffffffffff1673ffffffffffffffffffffffffffffffffffffffff1681526020019081526020016000206003016000803373ffffffffffffffffffffffffffffffffffffffff1673ffffffffffffffffffffffffffffffffffffffff1681526020019081526020016000206004016000803373ffffffffffffffffffffffffffffffffffffffff1673ffffffffffffffffffffffffffffffffffffffff168152602001908152602001600020600501886000803373ffffffffffffffffffffffffffffffffffffffff1673ffffffffffffffffffffffffffffffffffffffff168152602001908152602001600020600701604051611b77989796959493929190612988565b60405180910390a250565b806000803373ffffffffffffffffffffffffffffffffffffffff1673ffffffffffffffffffffffffffffffffffffffff1681526020019081526020016000206005019080519060200190611bd792919061206c565b503373ffffffffffffffffffffffffffffffffffffffff167f155f5b4d92149b26ef125abc0a307e7a39f79a322c216807302b6b52ee5a48196000803373ffffffffffffffffffffffffffffffffffffffff1673ffffffffffffffffffffffffffffffffffffffff1681526020019081526020016000206000016000803373ffffffffffffffffffffffffffffffffffffffff1673ffffffffffffffffffffffffffffffffffffffff1681526020019081526020016000206001016000803373ffffffffffffffffffffffffffffffffffffffff1673ffffffffffffffffffffffffffffffffffffffff1681526020019081526020016000206002016000803373ffffffffffffffffffffffffffffffffffffffff1673ffffffffffffffffffffffffffffffffffffffff1681526020019081526020016000206003016000803373ffffffffffffffffffffffffffffffffffffffff1673ffffffffffffffffffffffffffffffffffffffff168152602001908152602001600020600401876000803373ffffffffffffffffffffffffffffffffffffffff1673ffffffffffffffffffffffffffffffffffffffff1681526020019081526020016000206006016000803373ffffffffffffffffffffffffffffffffffffffff1673ffffffffffffffffffffffffffffffffffffffff168152602001908152602001600020600701604051611dec9897969594939291906128d2565b60405180910390a250565b806000803373ffffffffffffffffffffffffffffffffffffffff1673ffffffffffffffffffffffffffffffffffffffff1681526020019081526020016000206007019080519060200190611e4c92919061206c565b503373ffffffffffffffffffffffffffffffffffffffff167f155f5b4d92149b26ef125abc0a307e7a39f79a322c216807302b6b52ee5a48196000803373ffffffffffffffffffffffffffffffffffffffff1673ffffffffffffffffffffffffffffffffffffffff1681526020019081526020016000206000016000803373ffffffffffffffffffffffffffffffffffffffff1673ffffffffffffffffffffffffffffffffffffffff1681526020019081526020016000206001016000803373ffffffffffffffffffffffffffffffffffffffff1673ffffffffffffffffffffffffffffffffffffffff1681526020019081526020016000206002016000803373ffffffffffffffffffffffffffffffffffffffff1673ffffffffffffffffffffffffffffffffffffffff1681526020019081526020016000206003016000803373ffffffffffffffffffffffffffffffffffffffff1673ffffffffffffffffffffffffffffffffffffffff1681526020019081526020016000206004016000803373ffffffffffffffffffffffffffffffffffffffff1673ffffffffffffffffffffffffffffffffffffffff1681526020019081526020016000206005016000803373ffffffffffffffffffffffffffffffffffffffff1673ffffffffffffffffffffffffffffffffffffffff16815260200190815260200160002060060189604051612061989796959493929190612a3e565b60405180910390a250565b82805461207890612c4d565b90600052602060002090601f01602090048101928261209a57600085556120e1565b82601f106120b357805160ff19168380011785556120e1565b828001600101855582156120e1579182015b828111156120e05782518255916020019190600101906120c5565b5b5090506120ee9190612177565b5090565b60405180610100016040528060608152602001606081526020016060815260200160608152602001606081526020016060815260200160608152602001606081525090565b50805461214390612c4d565b6000825580601f106121555750612174565b601f0160209004906000526020600020908101906121739190612177565b5b50565b5b80821115612190576000816000905550600101612178565b5090565b60006121a76121a284612b67565b612b36565b9050828152602081018484840111156121bf57600080fd5b6121ca848285612c0b565b509392505050565b6000813590506121e181612cee565b92915050565b600082601f8301126121f857600080fd5b8135612208848260208601612194565b91505092915050565b60006020828403121561222357600080fd5b6000612231848285016121d2565b91505092915050565b60006020828403121561224c57600080fd5b600082013567ffffffffffffffff81111561226657600080fd5b612272848285016121e7565b91505092915050565b600061228682612bac565b6122908185612bb7565b93506122a0818560208601612c1a565b6122a981612cdd565b840191505092915050565b60006122bf82612bac565b6122c98185612bc8565b93506122d9818560208601612c1a565b6122e281612cdd565b840191505092915050565b600081546122fa81612c4d565b6123048186612bc8565b9450600182166000811461231f576001811461233157612364565b60ff1983168652602086019350612364565b61233a85612b97565b60005b8381101561235c5781548189015260018201915060208101905061233d565b808801955050505b50505092915050565b600061237a601983612bc8565b91507f416164686161722064657461696c73206e6f7420666f756e64000000000000006000830152602082019050919050565b60006101008301600083015184820360008601526123cb828261227b565b915050602083015184820360208601526123e5828261227b565b915050604083015184820360408601526123ff828261227b565b91505060608301518482036060860152612419828261227b565b91505060808301518482036080860152612433828261227b565b91505060a083015184820360a086015261244d828261227b565b91505060c083015184820360c0860152612467828261227b565b91505060e083015184820360e0860152612481828261227b565b9150508091505092915050565b60006101008201905081810360008301526124a9818b6122b4565b905081810360208301526124bd818a6122b4565b905081810360408301526124d181896122b4565b905081810360608301526124e581886122b4565b905081810360808301526124f981876122b4565b905081810360a083015261250d81866122b4565b905081810360c083015261252181856122b4565b905081810360e083015261253581846122b4565b90509998505050505050505050565b600061010082019050818103600083015261255f818b6122b4565b90508181036020830152612573818a6122ed565b9050818103604083015261258781896122ed565b9050818103606083015261259b81886122ed565b905081810360808301526125af81876122ed565b905081810360a08301526125c381866122ed565b905081810360c08301526125d781856122ed565b905081810360e08301526125eb81846122ed565b90509998505050505050505050565b6000610100820190508181036000830152612615818b6122ed565b90508181036020830152612629818a6122b4565b9050818103604083015261263d81896122ed565b9050818103606083015261265181886122ed565b9050818103608083015261266581876122ed565b905081810360a083015261267981866122ed565b905081810360c083015261268d81856122ed565b905081810360e08301526126a181846122ed565b90509998505050505050505050565b60006101008201905081810360008301526126cb818b6122ed565b905081810360208301526126df818a6122ed565b905081810360408301526126f381896122b4565b9050818103606083015261270781886122ed565b9050818103608083015261271b81876122ed565b905081810360a083015261272f81866122ed565b905081810360c083015261274381856122ed565b905081810360e083015261275781846122ed565b90509998505050505050505050565b6000610100820190508181036000830152612781818b6122ed565b90508181036020830152612795818a6122ed565b905081810360408301526127a981896122ed565b905081810360608301526127bd81886122b4565b905081810360808301526127d181876122ed565b905081810360a08301526127e581866122ed565b905081810360c08301526127f981856122ed565b905081810360e083015261280d81846122ed565b90509998505050505050505050565b6000610100820190508181036000830152612837818b6122ed565b9050818103602083015261284b818a6122ed565b9050818103604083015261285f81896122ed565b9050818103606083015261287381886122ed565b9050818103608083015261288781876122b4565b905081810360a083015261289b81866122ed565b905081810360c08301526128af81856122ed565b905081810360e08301526128c381846122ed565b90509998505050505050505050565b60006101008201905081810360008301526128ed818b6122ed565b90508181036020830152612901818a6122ed565b9050818103604083015261291581896122ed565b9050818103606083015261292981886122ed565b9050818103608083015261293d81876122ed565b905081810360a083015261295181866122b4565b905081810360c083015261296581856122ed565b905081810360e083015261297981846122ed565b90509998505050505050505050565b60006101008201905081810360008301526129a3818b6122ed565b905081810360208301526129b7818a6122ed565b905081810360408301526129cb81896122ed565b905081810360608301526129df81886122ed565b905081810360808301526129f381876122ed565b905081810360a0830152612a0781866122ed565b905081810360c0830152612a1b81856122b4565b905081810360e0830152612a2f81846122ed565b90509998505050505050505050565b6000610100820190508181036000830152612a59818b6122ed565b90508181036020830152612a6d818a6122ed565b90508181036040830152612a8181896122ed565b90508181036060830152612a9581886122ed565b90508181036080830152612aa981876122ed565b905081810360a0830152612abd81866122ed565b905081810360c0830152612ad181856122ed565b905081810360e0830152612ae581846122b4565b90509998505050505050505050565b60006020820190508181036000830152612b0d8161236d565b9050919050565b60006020820190508181036000830152612b2e81846123ad565b905092915050565b6000604051905081810181811067ffffffffffffffff82111715612b5d57612b5c612cae565b5b8060405250919050565b600067ffffffffffffffff821115612b8257612b81612cae565b5b601f19601f8301169050602081019050919050565b60008190508160005260206000209050919050565b600081519050919050565b600082825260208201905092915050565b600082825260208201905092915050565b6000612be482612beb565b9050919050565b600073ffffffffffffffffffffffffffffffffffffffff82169050919050565b82818337600083830152505050565b60005b83811015612c38578082015181840152602081019050612c1d565b83811115612c47576000848401525b50505050565b60006002820490506001821680612c6557607f821691505b60208210811415612c7957612c78612c7f565b5b50919050565b7f4e487b7100000000000000000000000000000000000000000000000000000000600052602260045260246000fd5b7f4e487b7100000000000000000000000000000000000000000000000000000000600052604160045260246000fd5b6000601f19601f8301169050919050565b612cf781612bd9565b8114612d0257600080fd5b5056fea2646970667358221220e6884e6f19cbdb2a9e069f3ed5e40cc65f9c8ee6dbb7e8a1b441246a81f3f01664736f6c63430008000033",
  "linkReferences": {},
  "deployedLinkReferences": {}
}