{
  "_format": "hh-sol-artifact-1",
  "contractName": "AadhaarStorage",
  "sourceName": "contracts/AadharStorage.sol",
  "abi": [
    {
      "anonymous": false,
      "inputs": [
        {
          "indexed": true,
          "internalType": "address",
          "name": "user",
          "type": "address"
        },
        {
          "indexed": false,
          "internalType": "string",
          "name": "name",
          "type": "string"
        },
        {
          "indexed": false,
          "internalType": "string",
          "name": "dob",
          "type": "string"
        },
        {
          "indexed": false,
          "internalType": "string",
          "name": "gender",
          "type": "string"
        },
        {
          "indexed": false,
          "internalType": "string",
          "name": "aadhaarNumber",
          "type": "string"
        },
        {
          "indexed": false,
          "internalType": "string",
          "name": "fatherName",
          "type": "string"
        },
        {
          "indexed": false,
          "internalType": "string",
          "name": "userAddress",
          "type": "string"
        },
        {
          "indexed": false,
          "internalType": "string",
          "name": "pincode",
          "type": "string"
        },
        {
          "indexed": false,
          "internalType": "string",
          "name": "phoneNumber",
          "type": "string"
        }
      ],
      "name": "AadhaarDetailsStored",
      "type": "event"
    },
    {
      "inputs": [
        {
          "internalType": "address",
          "name": "",
          "type": "address"
        }
      ],
      "name": "aadhaarDetails",
      "outputs": [
        {
          "internalType": "string",
          "name": "name",
          "type": "string"
        },
        {
          "internalType": "string",
          "name": "dob",
          "type": "string"
        },
        {
          "internalType": "string",
          "name": "gender",
          "type": "string"
        },
        {
          "internalType": "string",
          "name": "aadhaarNumber",
          "type": "string"
        },
        {
          "internalType": "string",
          "name": "fatherName",
          "type": "string"
        },
        {
          "internalType": "string",
          "name": "userAddress",
          "type": "string"
        },
        {
          "internalType": "string",
          "name": "pincode",
          "type": "string"
        },
        {
          "internalType": "string",
          "name": "phoneNumber",
          "type": "string"
        }
      ],
      "stateMutability": "view",
      "type": "function"
    },
    {
      "inputs": [],
      "name": "deleteAadhaarDetails",
      "outputs": [],
      "stateMutability": "nonpayable",
      "type": "function"
    },
    {
      "inputs": [
        {
          "internalType": "address",
          "name": "user",
          "type": "address"
        }
      ],
      "name": "getAadhaarDetails",
      "outputs": [
        {
          "components": [
            {
              "internalType": "string",
              "name": "name",
              "type": "string"
            },
            {
              "internalType": "string",
              "name": "dob",
              "type": "string"
            },
            {
              "internalType": "string",
              "name": "gender",
              "type": "string"
            },
            {
              "internalType": "string",
              "name": "aadhaarNumber",
              "type": "string"
            },
            {
              "internalType": "string",
              "name": "fatherName",
              "type": "string"
            },
            {
              "internalType": "string",
              "name": "userAddress",
              "type": "string"
            },
            {
              "internalType": "string",
              "name": "pincode",
              "type": "string"
            },
            {
              "internalType": "string",
              "name": "phoneNumber",
              "type": "string"
            }
          ],
          "internalType": "struct AadhaarStorage.AadhaarDetails",
          "name": "",
          "type": "tuple"
        }
      ],
      "stateMutability": "view",
      "type": "function"
    },
    {
      "inputs": [
        {
          "internalType": "string",
          "name": "_name",
          "type": "string"
        },
        {
          "internalType": "string",
          "name": "_dob",
          "type": "string"
        },
        {
          "internalType": "string",
          "name": "_gender",
          "type": "string"
        },
        {
          "internalType": "string",
          "name": "_aadhaarNumber",
          "type": "string"
        },
        {
          "internalType": "string",
          "name": "_fatherName",
          "type": "string"
        },
        {
          "internalType": "string",
          "name": "_userAddress",
          "type": "string"
        },
        {
          "internalType": "string",
          "name": "_pincode",
          "type": "string"
        },
        {
          "internalType": "string",
          "name": "_phoneNumber",
          "type": "string"
        }
      ],
      "name": "storeDetails",
      "outputs": [],
      "stateMutability": "nonpayable",
      "type": "function"
    }
  ],
  "bytecode": "0x608060405234801561001057600080fd5b50611527806100206000396000f3fe608060405234801561001057600080fd5b506004361061004c5760003560e01c8063509183c51461005157806355f1f3dc1461008857806361d64c35146100b8578063ef1a964b146100c2575b600080fd5b61006b60048036038101906100669190610f11565b6100de565b60405161007f98979695949392919061123f565b60405180910390f35b6100a2600480360381019061009d9190610f11565b610566565b6040516100af9190611315565b60405180910390f35b6100c0610a4f565b005b6100dc60048036038101906100d79190610f3a565b610ba3565b005b600060205280600052604060002060009150905080600001805461010190611439565b80601f016020809104026020016040519081016040528092919081815260200182805461012d90611439565b801561017a5780601f1061014f5761010080835404028352916020019161017a565b820191906000526020600020905b81548152906001019060200180831161015d57829003601f168201915b50505050509080600101805461018f90611439565b80601f01602080910402602001604051908101604052809291908181526020018280546101bb90611439565b80156102085780601f106101dd57610100808354040283529160200191610208565b820191906000526020600020905b8154815290600101906020018083116101eb57829003601f168201915b50505050509080600201805461021d90611439565b80601f016020809104026020016040519081016040528092919081815260200182805461024990611439565b80156102965780601f1061026b57610100808354040283529160200191610296565b820191906000526020600020905b81548152906001019060200180831161027957829003601f168201915b5050505050908060030180546102ab90611439565b80601f01602080910402602001604051908101604052809291908181526020018280546102d790611439565b80156103245780601f106102f957610100808354040283529160200191610324565b820191906000526020600020905b81548152906001019060200180831161030757829003601f168201915b50505050509080600401805461033990611439565b80601f016020809104026020016040519081016040528092919081815260200182805461036590611439565b80156103b25780601f10610387576101008083540402835291602001916103b2565b820191906000526020600020905b81548152906001019060200180831161039557829003601f168201915b5050505050908060050180546103c790611439565b80601f01602080910402602001604051908101604052809291908181526020018280546103f390611439565b80156104405780601f1061041557610100808354040283529160200191610440565b820191906000526020600020905b81548152906001019060200180831161042357829003601f168201915b50505050509080600601805461045590611439565b80601f016020809104026020016040519081016040528092919081815260200182805461048190611439565b80156104ce5780601f106104a3576101008083540402835291602001916104ce565b820191906000526020600020905b8154815290600101906020018083116104b157829003601f168201915b5050505050908060070180546104e390611439565b80601f016020809104026020016040519081016040528092919081815260200182805461050f90611439565b801561055c5780601f106105315761010080835404028352916020019161055c565b820191906000526020600020905b81548152906001019060200180831161053f57829003601f168201915b5050505050905088565b61056e610d6c565b6000808373ffffffffffffffffffffffffffffffffffffffff1673ffffffffffffffffffffffffffffffffffffffff168152602001908152602001600020604051806101000160405290816000820180546105c890611439565b80601f01602080910402602001604051908101604052809291908181526020018280546105f490611439565b80156106415780601f1061061657610100808354040283529160200191610641565b820191906000526020600020905b81548152906001019060200180831161062457829003601f168201915b5050505050815260200160018201805461065a90611439565b80601f016020809104026020016040519081016040528092919081815260200182805461068690611439565b80156106d35780601f106106a8576101008083540402835291602001916106d3565b820191906000526020600020905b8154815290600101906020018083116106b657829003601f168201915b505050505081526020016002820180546106ec90611439565b80601f016020809104026020016040519081016040528092919081815260200182805461071890611439565b80156107655780601f1061073a57610100808354040283529160200191610765565b820191906000526020600020905b81548152906001019060200180831161074857829003601f168201915b5050505050815260200160038201805461077e90611439565b80601f01602080910402602001604051908101604052809291908181526020018280546107aa90611439565b80156107f75780601f106107cc576101008083540402835291602001916107f7565b820191906000526020600020905b8154815290600101906020018083116107da57829003601f168201915b5050505050815260200160048201805461081090611439565b80601f016020809104026020016040519081016040528092919081815260200182805461083c90611439565b80156108895780601f1061085e57610100808354040283529160200191610889565b820191906000526020600020905b81548152906001019060200180831161086c57829003601f168201915b505050505081526020016005820180546108a290611439565b80601f01602080910402602001604051908101604052809291908181526020018280546108ce90611439565b801561091b5780601f106108f05761010080835404028352916020019161091b565b820191906000526020600020905b8154815290600101906020018083116108fe57829003601f168201915b5050505050815260200160068201805461093490611439565b80601f016020809104026020016040519081016040528092919081815260200182805461096090611439565b80156109ad5780601f10610982576101008083540402835291602001916109ad565b820191906000526020600020905b81548152906001019060200180831161099057829003601f168201915b505050505081526020016007820180546109c690611439565b80601f01602080910402602001604051908101604052809291908181526020018280546109f290611439565b8015610a3f5780601f10610a1457610100808354040283529160200191610a3f565b820191906000526020600020905b815481529060010190602001808311610a2257829003601f168201915b5050505050815250509050919050565b60008060003373ffffffffffffffffffffffffffffffffffffffff1673ffffffffffffffffffffffffffffffffffffffff1681526020019081526020016000206003018054610a9d90611439565b90501415610ae0576040517f08c379a0000000000000000000000000000000000000000000000000000000008152600401610ad7906112f5565b60405180910390fd5b6000803373ffffffffffffffffffffffffffffffffffffffff1673ffffffffffffffffffffffffffffffffffffffff16815260200190815260200160002060008082016000610b2f9190610db1565b600182016000610b3f9190610db1565b600282016000610b4f9190610db1565b600382016000610b5f9190610db1565b600482016000610b6f9190610db1565b600582016000610b7f9190610db1565b600682016000610b8f9190610db1565b600782016000610b9f9190610db1565b5050565b604051806101000160405280898152602001888152602001878152602001868152602001858152602001848152602001838152602001828152506000803373ffffffffffffffffffffffffffffffffffffffff1673ffffffffffffffffffffffffffffffffffffffff1681526020019081526020016000206000820151816000019080519060200190610c37929190610df1565b506020820151816001019080519060200190610c54929190610df1565b506040820151816002019080519060200190610c71929190610df1565b506060820151816003019080519060200190610c8e929190610df1565b506080820151816004019080519060200190610cab929190610df1565b5060a0820151816005019080519060200190610cc8929190610df1565b5060c0820151816006019080519060200190610ce5929190610df1565b5060e0820151816007019080519060200190610d02929190610df1565b509050503373ffffffffffffffffffffffffffffffffffffffff167f155f5b4d92149b26ef125abc0a307e7a39f79a322c216807302b6b52ee5a48198989898989898989604051610d5a98979695949392919061123f565b60405180910390a25050505050505050565b60405180610100016040528060608152602001606081526020016060815260200160608152602001606081526020016060815260200160608152602001606081525090565b508054610dbd90611439565b6000825580601f10610dcf5750610dee565b601f016020900490600052602060002090810190610ded9190610e77565b5b50565b828054610dfd90611439565b90600052602060002090601f016020900481019282610e1f5760008555610e66565b82601f10610e3857805160ff1916838001178555610e66565b82800160010185558215610e66579182015b82811115610e65578251825591602001919060010190610e4a565b5b509050610e739190610e77565b5090565b5b80821115610e90576000816000905550600101610e78565b5090565b6000610ea7610ea284611368565b611337565b905082815260208101848484011115610ebf57600080fd5b610eca8482856113f7565b509392505050565b600081359050610ee1816114da565b92915050565b600082601f830112610ef857600080fd5b8135610f08848260208601610e94565b91505092915050565b600060208284031215610f2357600080fd5b6000610f3184828501610ed2565b91505092915050565b600080600080600080600080610100898b031215610f5757600080fd5b600089013567ffffffffffffffff811115610f7157600080fd5b610f7d8b828c01610ee7565b985050602089013567ffffffffffffffff811115610f9a57600080fd5b610fa68b828c01610ee7565b975050604089013567ffffffffffffffff811115610fc357600080fd5b610fcf8b828c01610ee7565b965050606089013567ffffffffffffffff811115610fec57600080fd5b610ff88b828c01610ee7565b955050608089013567ffffffffffffffff81111561101557600080fd5b6110218b828c01610ee7565b94505060a089013567ffffffffffffffff81111561103e57600080fd5b61104a8b828c01610ee7565b93505060c089013567ffffffffffffffff81111561106757600080fd5b6110738b828c01610ee7565b92505060e089013567ffffffffffffffff81111561109057600080fd5b61109c8b828c01610ee7565b9150509295985092959890939650565b60006110b782611398565b6110c181856113a3565b93506110d1818560208601611406565b6110da816114c9565b840191505092915050565b60006110f082611398565b6110fa81856113b4565b935061110a818560208601611406565b611113816114c9565b840191505092915050565b600061112b6019836113b4565b91507f416164686161722064657461696c73206e6f7420666f756e64000000000000006000830152602082019050919050565b600061010083016000830151848203600086015261117c82826110ac565b9150506020830151848203602086015261119682826110ac565b915050604083015184820360408601526111b082826110ac565b915050606083015184820360608601526111ca82826110ac565b915050608083015184820360808601526111e482826110ac565b91505060a083015184820360a08601526111fe82826110ac565b91505060c083015184820360c086015261121882826110ac565b91505060e083015184820360e086015261123282826110ac565b9150508091505092915050565b600061010082019050818103600083015261125a818b6110e5565b9050818103602083015261126e818a6110e5565b9050818103604083015261128281896110e5565b9050818103606083015261129681886110e5565b905081810360808301526112aa81876110e5565b905081810360a08301526112be81866110e5565b905081810360c08301526112d281856110e5565b905081810360e08301526112e681846110e5565b90509998505050505050505050565b6000602082019050818103600083015261130e8161111e565b9050919050565b6000602082019050818103600083015261132f818461115e565b905092915050565b6000604051905081810181811067ffffffffffffffff8211171561135e5761135d61149a565b5b8060405250919050565b600067ffffffffffffffff8211156113835761138261149a565b5b601f19601f8301169050602081019050919050565b600081519050919050565b600082825260208201905092915050565b600082825260208201905092915050565b60006113d0826113d7565b9050919050565b600073ffffffffffffffffffffffffffffffffffffffff82169050919050565b82818337600083830152505050565b60005b83811015611424578082015181840152602081019050611409565b83811115611433576000848401525b50505050565b6000600282049050600182168061145157607f821691505b602082108114156114655761146461146b565b5b50919050565b7f4e487b7100000000000000000000000000000000000000000000000000000000600052602260045260246000fd5b7f4e487b7100000000000000000000000000000000000000000000000000000000600052604160045260246000fd5b6000601f19601f8301169050919050565b6114e3816113c5565b81146114ee57600080fd5b5056fea2646970667358221220c15abbd6918965c64e8c77a19c6bf1f25daaa20d9eea07872247d7e661d5488564736f6c63430008000033",
  "linkReferences": {},
  "deployedLinkReferences": {}
}