{
  "_format": "hh-sol-artifact-1",
  "contractName": "AadhaarStorage",
  "sourceName": "contracts/AadharStorage.sol",
  "abi": [
    {
      "anonymous": false,
      "inputs": [
        {
          "indexed": true,
          "internalType": "address",
          "name": "user",
          "type": "address"
        },
        {
          "indexed": false,
          "internalType": "string",
          "name": "aadhaarNumber",
          "type": "string"
        }
      ],
      "name": "AadhaarNumberStored",
      "type": "event"
    },
    {
      "anonymous": false,
      "inputs": [
        {
          "indexed": true,
          "internalType": "address",
          "name": "user",
          "type": "address"
        },
        {
          "indexed": false,
          "internalType": "string",
          "name": "dob",
          "type": "string"
        }
      ],
      "name": "DobStored",
      "type": "event"
    },
    {
      "anonymous": false,
      "inputs": [
        {
          "indexed": true,
          "internalType": "address",
          "name": "user",
          "type": "address"
        },
        {
          "indexed": false,
          "internalType": "string",
          "name": "fatherName",
          "type": "string"
        }
      ],
      "name": "FatherNameStored",
      "type": "event"
    },
    {
      "anonymous": false,
      "inputs": [
        {
          "indexed": true,
          "internalType": "address",
          "name": "user",
          "type": "address"
        },
        {
          "indexed": false,
          "internalType": "string",
          "name": "gender",
          "type": "string"
        }
      ],
      "name": "GenderStored",
      "type": "event"
    },
    {
      "anonymous": false,
      "inputs": [
        {
          "indexed": true,
          "internalType": "address",
          "name": "user",
          "type": "address"
        },
        {
          "indexed": false,
          "internalType": "string",
          "name": "name",
          "type": "string"
        }
      ],
      "name": "NameStored",
      "type": "event"
    },
    {
      "anonymous": false,
      "inputs": [
        {
          "indexed": true,
          "internalType": "address",
          "name": "user",
          "type": "address"
        },
        {
          "indexed": false,
          "internalType": "string",
          "name": "phoneNumber",
          "type": "string"
        }
      ],
      "name": "PhoneNumberStored",
      "type": "event"
    },
    {
      "anonymous": false,
      "inputs": [
        {
          "indexed": true,
          "internalType": "address",
          "name": "user",
          "type": "address"
        },
        {
          "indexed": false,
          "internalType": "string",
          "name": "pincode",
          "type": "string"
        }
      ],
      "name": "PincodeStored",
      "type": "event"
    },
    {
      "anonymous": false,
      "inputs": [
        {
          "indexed": true,
          "internalType": "address",
          "name": "user",
          "type": "address"
        },
        {
          "indexed": false,
          "internalType": "string",
          "name": "userAddress",
          "type": "string"
        }
      ],
      "name": "UserAddressStored",
      "type": "event"
    },
    {
      "inputs": [
        {
          "internalType": "address",
          "name": "",
          "type": "address"
        }
      ],
      "name": "aadhaarDetails",
      "outputs": [
        {
          "internalType": "string",
          "name": "name",
          "type": "string"
        },
        {
          "internalType": "string",
          "name": "dob",
          "type": "string"
        },
        {
          "internalType": "string",
          "name": "gender",
          "type": "string"
        },
        {
          "internalType": "string",
          "name": "aadhaarNumber",
          "type": "string"
        },
        {
          "internalType": "string",
          "name": "fatherName",
          "type": "string"
        },
        {
          "internalType": "string",
          "name": "userAddress",
          "type": "string"
        },
        {
          "internalType": "string",
          "name": "pincode",
          "type": "string"
        },
        {
          "internalType": "string",
          "name": "phoneNumber",
          "type": "string"
        }
      ],
      "stateMutability": "view",
      "type": "function"
    },
    {
      "inputs": [],
      "name": "deleteAadhaarDetails",
      "outputs": [],
      "stateMutability": "nonpayable",
      "type": "function"
    },
    {
      "inputs": [
        {
          "internalType": "address",
          "name": "user",
          "type": "address"
        }
      ],
      "name": "getAadhaarDetails",
      "outputs": [
        {
          "components": [
            {
              "internalType": "string",
              "name": "name",
              "type": "string"
            },
            {
              "internalType": "string",
              "name": "dob",
              "type": "string"
            },
            {
              "internalType": "string",
              "name": "gender",
              "type": "string"
            },
            {
              "internalType": "string",
              "name": "aadhaarNumber",
              "type": "string"
            },
            {
              "internalType": "string",
              "name": "fatherName",
              "type": "string"
            },
            {
              "internalType": "string",
              "name": "userAddress",
              "type": "string"
            },
            {
              "internalType": "string",
              "name": "pincode",
              "type": "string"
            },
            {
              "internalType": "string",
              "name": "phoneNumber",
              "type": "string"
            }
          ],
          "internalType": "struct AadhaarStorage.AadhaarDetails",
          "name": "",
          "type": "tuple"
        }
      ],
      "stateMutability": "view",
      "type": "function"
    },
    {
      "inputs": [
        {
          "internalType": "string",
          "name": "_aadhaarNumber",
          "type": "string"
        }
      ],
      "name": "storeAadhaarNumber",
      "outputs": [],
      "stateMutability": "nonpayable",
      "type": "function"
    },
    {
      "inputs": [
        {
          "internalType": "string",
          "name": "_dob",
          "type": "string"
        }
      ],
      "name": "storeDob",
      "outputs": [],
      "stateMutability": "nonpayable",
      "type": "function"
    },
    {
      "inputs": [
        {
          "internalType": "string",
          "name": "_fatherName",
          "type": "string"
        }
      ],
      "name": "storeFatherName",
      "outputs": [],
      "stateMutability": "nonpayable",
      "type": "function"
    },
    {
      "inputs": [
        {
          "internalType": "string",
          "name": "_gender",
          "type": "string"
        }
      ],
      "name": "storeGender",
      "outputs": [],
      "stateMutability": "nonpayable",
      "type": "function"
    },
    {
      "inputs": [
        {
          "internalType": "string",
          "name": "_name",
          "type": "string"
        }
      ],
      "name": "storeName",
      "outputs": [],
      "stateMutability": "nonpayable",
      "type": "function"
    },
    {
      "inputs": [
        {
          "internalType": "string",
          "name": "_phoneNumber",
          "type": "string"
        }
      ],
      "name": "storePhoneNumber",
      "outputs": [],
      "stateMutability": "nonpayable",
      "type": "function"
    },
    {
      "inputs": [
        {
          "internalType": "string",
          "name": "_pincode",
          "type": "string"
        }
      ],
      "name": "storePincode",
      "outputs": [],
      "stateMutability": "nonpayable",
      "type": "function"
    },
    {
      "inputs": [
        {
          "internalType": "string",
          "name": "_userAddress",
          "type": "string"
        }
      ],
      "name": "storeUserAddress",
      "outputs": [],
      "stateMutability": "nonpayable",
      "type": "function"
    }
  ],
  "bytecode": "0x608060405234801561001057600080fd5b506118a8806100206000396000f3fe608060405234801561001057600080fd5b50600436106100a95760003560e01c80636824b070116100715780636824b07014610157578063684f9fe814610173578063924e6f7f1461018f57806395f02cde146101ab578063e697ffb6146101c7578063ec9eb117146101e3576100a9565b8063063cfccb146100ae57806330b6c4c0146100ca578063509183c5146100e657806355f1f3dc1461011d57806361d64c351461014d575b600080fd5b6100c860048036038101906100c391906113ca565b6101ff565b005b6100e460048036038101906100df91906113ca565b6102a6565b005b61010060048036038101906100fb91906113a1565b61034d565b6040516101149897969594939291906115c0565b60405180910390f35b610137600480360381019061013291906113a1565b6107d5565b6040516101449190611696565b60405180910390f35b610155610cbe565b005b610171600480360381019061016c91906113ca565b610e12565b005b61018d600480360381019061018891906113ca565b610eb9565b005b6101a960048036038101906101a491906113ca565b610f60565b005b6101c560048036038101906101c091906113ca565b611007565b005b6101e160048036038101906101dc91906113ca565b6110ae565b005b6101fd60048036038101906101f891906113ca565b611155565b005b806000803373ffffffffffffffffffffffffffffffffffffffff1673ffffffffffffffffffffffffffffffffffffffff16815260200190815260200160002060000190805190602001906102549291906111fc565b503373ffffffffffffffffffffffffffffffffffffffff167f5bc3817a8f34e159a358513fc07a7b1ef868bf50fecbb50cb0629c3dc77c9e7d8260405161029b919061159e565b60405180910390a250565b806000803373ffffffffffffffffffffffffffffffffffffffff1673ffffffffffffffffffffffffffffffffffffffff16815260200190815260200160002060020190805190602001906102fb9291906111fc565b503373ffffffffffffffffffffffffffffffffffffffff167f8be2aa5bb2912cc3510398e48e236298b464f352397c33fd2b9dd04de5ce935782604051610342919061159e565b60405180910390a250565b6000602052806000526040600020600091509050806000018054610370906117ba565b80601f016020809104026020016040519081016040528092919081815260200182805461039c906117ba565b80156103e95780601f106103be576101008083540402835291602001916103e9565b820191906000526020600020905b8154815290600101906020018083116103cc57829003601f168201915b5050505050908060010180546103fe906117ba565b80601f016020809104026020016040519081016040528092919081815260200182805461042a906117ba565b80156104775780601f1061044c57610100808354040283529160200191610477565b820191906000526020600020905b81548152906001019060200180831161045a57829003601f168201915b50505050509080600201805461048c906117ba565b80601f01602080910402602001604051908101604052809291908181526020018280546104b8906117ba565b80156105055780601f106104da57610100808354040283529160200191610505565b820191906000526020600020905b8154815290600101906020018083116104e857829003601f168201915b50505050509080600301805461051a906117ba565b80601f0160208091040260200160405190810160405280929190818152602001828054610546906117ba565b80156105935780601f1061056857610100808354040283529160200191610593565b820191906000526020600020905b81548152906001019060200180831161057657829003601f168201915b5050505050908060040180546105a8906117ba565b80601f01602080910402602001604051908101604052809291908181526020018280546105d4906117ba565b80156106215780601f106105f657610100808354040283529160200191610621565b820191906000526020600020905b81548152906001019060200180831161060457829003601f168201915b505050505090806005018054610636906117ba565b80601f0160208091040260200160405190810160405280929190818152602001828054610662906117ba565b80156106af5780601f10610684576101008083540402835291602001916106af565b820191906000526020600020905b81548152906001019060200180831161069257829003601f168201915b5050505050908060060180546106c4906117ba565b80601f01602080910402602001604051908101604052809291908181526020018280546106f0906117ba565b801561073d5780601f106107125761010080835404028352916020019161073d565b820191906000526020600020905b81548152906001019060200180831161072057829003601f168201915b505050505090806007018054610752906117ba565b80601f016020809104026020016040519081016040528092919081815260200182805461077e906117ba565b80156107cb5780601f106107a0576101008083540402835291602001916107cb565b820191906000526020600020905b8154815290600101906020018083116107ae57829003601f168201915b5050505050905088565b6107dd611282565b6000808373ffffffffffffffffffffffffffffffffffffffff1673ffffffffffffffffffffffffffffffffffffffff16815260200190815260200160002060405180610100016040529081600082018054610837906117ba565b80601f0160208091040260200160405190810160405280929190818152602001828054610863906117ba565b80156108b05780601f10610885576101008083540402835291602001916108b0565b820191906000526020600020905b81548152906001019060200180831161089357829003601f168201915b505050505081526020016001820180546108c9906117ba565b80601f01602080910402602001604051908101604052809291908181526020018280546108f5906117ba565b80156109425780601f1061091757610100808354040283529160200191610942565b820191906000526020600020905b81548152906001019060200180831161092557829003601f168201915b5050505050815260200160028201805461095b906117ba565b80601f0160208091040260200160405190810160405280929190818152602001828054610987906117ba565b80156109d45780601f106109a9576101008083540402835291602001916109d4565b820191906000526020600020905b8154815290600101906020018083116109b757829003601f168201915b505050505081526020016003820180546109ed906117ba565b80601f0160208091040260200160405190810160405280929190818152602001828054610a19906117ba565b8015610a665780601f10610a3b57610100808354040283529160200191610a66565b820191906000526020600020905b815481529060010190602001808311610a4957829003601f168201915b50505050508152602001600482018054610a7f906117ba565b80601f0160208091040260200160405190810160405280929190818152602001828054610aab906117ba565b8015610af85780601f10610acd57610100808354040283529160200191610af8565b820191906000526020600020905b815481529060010190602001808311610adb57829003601f168201915b50505050508152602001600582018054610b11906117ba565b80601f0160208091040260200160405190810160405280929190818152602001828054610b3d906117ba565b8015610b8a5780601f10610b5f57610100808354040283529160200191610b8a565b820191906000526020600020905b815481529060010190602001808311610b6d57829003601f168201915b50505050508152602001600682018054610ba3906117ba565b80601f0160208091040260200160405190810160405280929190818152602001828054610bcf906117ba565b8015610c1c5780601f10610bf157610100808354040283529160200191610c1c565b820191906000526020600020905b815481529060010190602001808311610bff57829003601f168201915b50505050508152602001600782018054610c35906117ba565b80601f0160208091040260200160405190810160405280929190818152602001828054610c61906117ba565b8015610cae5780601f10610c8357610100808354040283529160200191610cae565b820191906000526020600020905b815481529060010190602001808311610c9157829003601f168201915b5050505050815250509050919050565b60008060003373ffffffffffffffffffffffffffffffffffffffff1673ffffffffffffffffffffffffffffffffffffffff1681526020019081526020016000206003018054610d0c906117ba565b90501415610d4f576040517f08c379a0000000000000000000000000000000000000000000000000000000008152600401610d4690611676565b60405180910390fd5b6000803373ffffffffffffffffffffffffffffffffffffffff1673ffffffffffffffffffffffffffffffffffffffff16815260200190815260200160002060008082016000610d9e91906112c7565b600182016000610dae91906112c7565b600282016000610dbe91906112c7565b600382016000610dce91906112c7565b600482016000610dde91906112c7565b600582016000610dee91906112c7565b600682016000610dfe91906112c7565b600782016000610e0e91906112c7565b5050565b806000803373ffffffffffffffffffffffffffffffffffffffff1673ffffffffffffffffffffffffffffffffffffffff1681526020019081526020016000206003019080519060200190610e679291906111fc565b503373ffffffffffffffffffffffffffffffffffffffff167ff5552830ef0ee85ed8b6a673abee07b32fdb9976b67a74b7fd53bdef1e2cd09a82604051610eae919061159e565b60405180910390a250565b806000803373ffffffffffffffffffffffffffffffffffffffff1673ffffffffffffffffffffffffffffffffffffffff1681526020019081526020016000206004019080519060200190610f0e9291906111fc565b503373ffffffffffffffffffffffffffffffffffffffff167fb48919615cb3f366c30027693889a2c20687e0a07dc3afd9bab228aa461a475382604051610f55919061159e565b60405180910390a250565b806000803373ffffffffffffffffffffffffffffffffffffffff1673ffffffffffffffffffffffffffffffffffffffff1681526020019081526020016000206001019080519060200190610fb59291906111fc565b503373ffffffffffffffffffffffffffffffffffffffff167f9c6065752cf51f2e5d51777537eef4306c4ec3cb3d70876e377defbf173c6c8a82604051610ffc919061159e565b60405180910390a250565b806000803373ffffffffffffffffffffffffffffffffffffffff1673ffffffffffffffffffffffffffffffffffffffff168152602001908152602001600020600601908051906020019061105c9291906111fc565b503373ffffffffffffffffffffffffffffffffffffffff167fc1ef7492a5ca2b22a5304780bf6f785ac913a7a6b494c86ea3c2f5983950896c826040516110a3919061159e565b60405180910390a250565b806000803373ffffffffffffffffffffffffffffffffffffffff1673ffffffffffffffffffffffffffffffffffffffff16815260200190815260200160002060050190805190602001906111039291906111fc565b503373ffffffffffffffffffffffffffffffffffffffff167f039d32d3b19af3c27bdedbc3681b701cd6ba21f0b57f220da4aedd8544221c478260405161114a919061159e565b60405180910390a250565b806000803373ffffffffffffffffffffffffffffffffffffffff1673ffffffffffffffffffffffffffffffffffffffff16815260200190815260200160002060070190805190602001906111aa9291906111fc565b503373ffffffffffffffffffffffffffffffffffffffff167f5dbb26fa551134ce5ece5d471ebb5930e4cb5a266a8a2d45b7723a45a1ededa0826040516111f1919061159e565b60405180910390a250565b828054611208906117ba565b90600052602060002090601f01602090048101928261122a5760008555611271565b82601f1061124357805160ff1916838001178555611271565b82800160010185558215611271579182015b82811115611270578251825591602001919060010190611255565b5b50905061127e9190611307565b5090565b60405180610100016040528060608152602001606081526020016060815260200160608152602001606081526020016060815260200160608152602001606081525090565b5080546112d3906117ba565b6000825580601f106112e55750611304565b601f0160209004906000526020600020908101906113039190611307565b5b50565b5b80821115611320576000816000905550600101611308565b5090565b6000611337611332846116e9565b6116b8565b90508281526020810184848401111561134f57600080fd5b61135a848285611778565b509392505050565b6000813590506113718161185b565b92915050565b600082601f83011261138857600080fd5b8135611398848260208601611324565b91505092915050565b6000602082840312156113b357600080fd5b60006113c184828501611362565b91505092915050565b6000602082840312156113dc57600080fd5b600082013567ffffffffffffffff8111156113f657600080fd5b61140284828501611377565b91505092915050565b600061141682611719565b6114208185611724565b9350611430818560208601611787565b6114398161184a565b840191505092915050565b600061144f82611719565b6114598185611735565b9350611469818560208601611787565b6114728161184a565b840191505092915050565b600061148a601983611735565b91507f416164686161722064657461696c73206e6f7420666f756e64000000000000006000830152602082019050919050565b60006101008301600083015184820360008601526114db828261140b565b915050602083015184820360208601526114f5828261140b565b9150506040830151848203604086015261150f828261140b565b91505060608301518482036060860152611529828261140b565b91505060808301518482036080860152611543828261140b565b91505060a083015184820360a086015261155d828261140b565b91505060c083015184820360c0860152611577828261140b565b91505060e083015184820360e0860152611591828261140b565b9150508091505092915050565b600060208201905081810360008301526115b88184611444565b905092915050565b60006101008201905081810360008301526115db818b611444565b905081810360208301526115ef818a611444565b905081810360408301526116038189611444565b905081810360608301526116178188611444565b9050818103608083015261162b8187611444565b905081810360a083015261163f8186611444565b905081810360c08301526116538185611444565b905081810360e08301526116678184611444565b90509998505050505050505050565b6000602082019050818103600083015261168f8161147d565b9050919050565b600060208201905081810360008301526116b081846114bd565b905092915050565b6000604051905081810181811067ffffffffffffffff821117156116df576116de61181b565b5b8060405250919050565b600067ffffffffffffffff8211156117045761170361181b565b5b601f19601f8301169050602081019050919050565b600081519050919050565b600082825260208201905092915050565b600082825260208201905092915050565b600061175182611758565b9050919050565b600073ffffffffffffffffffffffffffffffffffffffff82169050919050565b82818337600083830152505050565b60005b838110156117a557808201518184015260208101905061178a565b838111156117b4576000848401525b50505050565b600060028204905060018216806117d257607f821691505b602082108114156117e6576117e56117ec565b5b50919050565b7f4e487b7100000000000000000000000000000000000000000000000000000000600052602260045260246000fd5b7f4e487b7100000000000000000000000000000000000000000000000000000000600052604160045260246000fd5b6000601f19601f8301169050919050565b61186481611746565b811461186f57600080fd5b5056fea26469706673582212201443de9d183bb846c2a333ba38ffbc1563d03421d83fa581c42bc7bb73341e0a64736f6c63430008000033",
  "linkReferences": {},
  "deployedLinkReferences": {}
}