{
  "_format": "hh-sol-artifact-1",
  "contractName": "AadhaarStorage",
  "sourceName": "contracts/AadharStorage.sol",
  "abi": [
    {
      "inputs": [
        {
          "internalType": "address",
          "name": "",
          "type": "address"
        }
      ],
      "name": "aadhaarDetails",
      "outputs": [
        {
          "internalType": "string",
          "name": "name",
          "type": "string"
        },
        {
          "internalType": "string",
          "name": "dob",
          "type": "string"
        },
        {
          "internalType": "string",
          "name": "gender",
          "type": "string"
        },
        {
          "internalType": "string",
          "name": "aadhaarNumber",
          "type": "string"
        }
      ],
      "stateMutability": "view",
      "type": "function"
    },
    {
      "inputs": [
        {
          "internalType": "address",
          "name": "user",
          "type": "address"
        }
      ],
      "name": "getAadhaarDetails",
      "outputs": [
        {
          "components": [
            {
              "internalType": "string",
              "name": "name",
              "type": "string"
            },
            {
              "internalType": "string",
              "name": "dob",
              "type": "string"
            },
            {
              "internalType": "string",
              "name": "gender",
              "type": "string"
            },
            {
              "internalType": "string",
              "name": "aadhaarNumber",
              "type": "string"
            }
          ],
          "internalType": "struct AadhaarStorage.AadhaarDetails",
          "name": "",
          "type": "tuple"
        }
      ],
      "stateMutability": "view",
      "type": "function"
    },
    {
      "inputs": [
        {
          "internalType": "string",
          "name": "_name",
          "type": "string"
        },
        {
          "internalType": "string",
          "name": "_dob",
          "type": "string"
        },
        {
          "internalType": "string",
          "name": "_gender",
          "type": "string"
        },
        {
          "internalType": "string",
          "name": "_aadhaarNumber",
          "type": "string"
        }
      ],
      "name": "storeAadhaarDetails",
      "outputs": [],
      "stateMutability": "nonpayable",
      "type": "function"
    }
  ],
  "bytecode": "0x608060405234801561001057600080fd5b50610c22806100206000396000f3fe608060405234801561001057600080fd5b50600436106100415760003560e01c80630378776514610046578063509183c51461006257806355f1f3dc14610095575b600080fd5b610060600480360381019061005b9190610802565b6100c5565b005b61007c600480360381019061007791906107d9565b6101a1565b60405161008c94939291906109af565b60405180910390f35b6100af60048036038101906100aa91906107d9565b6103f1565b6040516100bc9190610a10565b60405180910390f35b6040518060800160405280858152602001848152602001838152602001828152506000803373ffffffffffffffffffffffffffffffffffffffff1673ffffffffffffffffffffffffffffffffffffffff1681526020019081526020016000206000820151816000019080519060200190610140929190610691565b50602082015181600101908051906020019061015d929190610691565b50604082015181600201908051906020019061017a929190610691565b506060820151816003019080519060200190610197929190610691565b5090505050505050565b60006020528060005260406000206000915090508060000180546101c490610b34565b80601f01602080910402602001604051908101604052809291908181526020018280546101f090610b34565b801561023d5780601f106102125761010080835404028352916020019161023d565b820191906000526020600020905b81548152906001019060200180831161022057829003601f168201915b50505050509080600101805461025290610b34565b80601f016020809104026020016040519081016040528092919081815260200182805461027e90610b34565b80156102cb5780601f106102a0576101008083540402835291602001916102cb565b820191906000526020600020905b8154815290600101906020018083116102ae57829003601f168201915b5050505050908060020180546102e090610b34565b80601f016020809104026020016040519081016040528092919081815260200182805461030c90610b34565b80156103595780601f1061032e57610100808354040283529160200191610359565b820191906000526020600020905b81548152906001019060200180831161033c57829003601f168201915b50505050509080600301805461036e90610b34565b80601f016020809104026020016040519081016040528092919081815260200182805461039a90610b34565b80156103e75780601f106103bc576101008083540402835291602001916103e7565b820191906000526020600020905b8154815290600101906020018083116103ca57829003601f168201915b5050505050905084565b6103f9610717565b6000808373ffffffffffffffffffffffffffffffffffffffff1673ffffffffffffffffffffffffffffffffffffffff16815260200190815260200160002060405180608001604052908160008201805461045290610b34565b80601f016020809104026020016040519081016040528092919081815260200182805461047e90610b34565b80156104cb5780601f106104a0576101008083540402835291602001916104cb565b820191906000526020600020905b8154815290600101906020018083116104ae57829003601f168201915b505050505081526020016001820180546104e490610b34565b80601f016020809104026020016040519081016040528092919081815260200182805461051090610b34565b801561055d5780601f106105325761010080835404028352916020019161055d565b820191906000526020600020905b81548152906001019060200180831161054057829003601f168201915b5050505050815260200160028201805461057690610b34565b80601f01602080910402602001604051908101604052809291908181526020018280546105a290610b34565b80156105ef5780601f106105c4576101008083540402835291602001916105ef565b820191906000526020600020905b8154815290600101906020018083116105d257829003601f168201915b5050505050815260200160038201805461060890610b34565b80601f016020809104026020016040519081016040528092919081815260200182805461063490610b34565b80156106815780601f1061065657610100808354040283529160200191610681565b820191906000526020600020905b81548152906001019060200180831161066457829003601f168201915b5050505050815250509050919050565b82805461069d90610b34565b90600052602060002090601f0160209004810192826106bf5760008555610706565b82601f106106d857805160ff1916838001178555610706565b82800160010185558215610706579182015b828111156107055782518255916020019190600101906106ea565b5b509050610713919061073f565b5090565b6040518060800160405280606081526020016060815260200160608152602001606081525090565b5b80821115610758576000816000905550600101610740565b5090565b600061076f61076a84610a63565b610a32565b90508281526020810184848401111561078757600080fd5b610792848285610af2565b509392505050565b6000813590506107a981610bd5565b92915050565b600082601f8301126107c057600080fd5b81356107d084826020860161075c565b91505092915050565b6000602082840312156107eb57600080fd5b60006107f98482850161079a565b91505092915050565b6000806000806080858703121561081857600080fd5b600085013567ffffffffffffffff81111561083257600080fd5b61083e878288016107af565b945050602085013567ffffffffffffffff81111561085b57600080fd5b610867878288016107af565b935050604085013567ffffffffffffffff81111561088457600080fd5b610890878288016107af565b925050606085013567ffffffffffffffff8111156108ad57600080fd5b6108b9878288016107af565b91505092959194509250565b60006108d082610a93565b6108da8185610a9e565b93506108ea818560208601610b01565b6108f381610bc4565b840191505092915050565b600061090982610a93565b6109138185610aaf565b9350610923818560208601610b01565b61092c81610bc4565b840191505092915050565b6000608083016000830151848203600086015261095482826108c5565b9150506020830151848203602086015261096e82826108c5565b9150506040830151848203604086015261098882826108c5565b915050606083015184820360608601526109a282826108c5565b9150508091505092915050565b600060808201905081810360008301526109c981876108fe565b905081810360208301526109dd81866108fe565b905081810360408301526109f181856108fe565b90508181036060830152610a0581846108fe565b905095945050505050565b60006020820190508181036000830152610a2a8184610937565b905092915050565b6000604051905081810181811067ffffffffffffffff82111715610a5957610a58610b95565b5b8060405250919050565b600067ffffffffffffffff821115610a7e57610a7d610b95565b5b601f19601f8301169050602081019050919050565b600081519050919050565b600082825260208201905092915050565b600082825260208201905092915050565b6000610acb82610ad2565b9050919050565b600073ffffffffffffffffffffffffffffffffffffffff82169050919050565b82818337600083830152505050565b60005b83811015610b1f578082015181840152602081019050610b04565b83811115610b2e576000848401525b50505050565b60006002820490506001821680610b4c57607f821691505b60208210811415610b6057610b5f610b66565b5b50919050565b7f4e487b7100000000000000000000000000000000000000000000000000000000600052602260045260246000fd5b7f4e487b7100000000000000000000000000000000000000000000000000000000600052604160045260246000fd5b6000601f19601f8301169050919050565b610bde81610ac0565b8114610be957600080fd5b5056fea264697066735822122062e2dc9a66b1f1eec649071edbce8500f7bc7f69116a475c65c207c50a67417e64736f6c63430008000033",
  "linkReferences": {},
  "deployedLinkReferences": {}
}