{
  "_format": "hh-sol-artifact-1",
  "contractName": "AadhaarStorage",
  "sourceName": "contracts/AadharStorage.sol",
  "abi": [
    {
      "anonymous": false,
      "inputs": [
        {
          "indexed": true,
          "internalType": "address",
          "name": "user",
          "type": "address"
        },
        {
          "indexed": false,
          "internalType": "string",
          "name": "name",
          "type": "string"
        },
        {
          "indexed": false,
          "internalType": "string",
          "name": "dob",
          "type": "string"
        },
        {
          "indexed": false,
          "internalType": "string",
          "name": "gender",
          "type": "string"
        },
        {
          "indexed": false,
          "internalType": "string",
          "name": "aadhaarNumber",
          "type": "string"
        }
      ],
      "name": "AadhaarDetailsStored",
      "type": "event"
    },
    {
      "inputs": [
        {
          "internalType": "address",
          "name": "",
          "type": "address"
        }
      ],
      "name": "aadhaarDetails",
      "outputs": [
        {
          "internalType": "string",
          "name": "name",
          "type": "string"
        },
        {
          "internalType": "string",
          "name": "dob",
          "type": "string"
        },
        {
          "internalType": "string",
          "name": "gender",
          "type": "string"
        },
        {
          "internalType": "string",
          "name": "aadhaarNumber",
          "type": "string"
        }
      ],
      "stateMutability": "view",
      "type": "function"
    },
    {
      "inputs": [],
      "name": "deleteAadhaarDetails",
      "outputs": [],
      "stateMutability": "nonpayable",
      "type": "function"
    },
    {
      "inputs": [
        {
          "internalType": "address",
          "name": "user",
          "type": "address"
        }
      ],
      "name": "getAadhaarDetails",
      "outputs": [
        {
          "components": [
            {
              "internalType": "string",
              "name": "name",
              "type": "string"
            },
            {
              "internalType": "string",
              "name": "dob",
              "type": "string"
            },
            {
              "internalType": "string",
              "name": "gender",
              "type": "string"
            },
            {
              "internalType": "string",
              "name": "aadhaarNumber",
              "type": "string"
            }
          ],
          "internalType": "struct AadhaarStorage.AadhaarDetails",
          "name": "",
          "type": "tuple"
        }
      ],
      "stateMutability": "view",
      "type": "function"
    },
    {
      "inputs": [
        {
          "internalType": "string",
          "name": "_name",
          "type": "string"
        },
        {
          "internalType": "string",
          "name": "_dob",
          "type": "string"
        },
        {
          "internalType": "string",
          "name": "_gender",
          "type": "string"
        },
        {
          "internalType": "string",
          "name": "_aadhaarNumber",
          "type": "string"
        }
      ],
      "name": "storeAadhaarDetails",
      "outputs": [],
      "stateMutability": "nonpayable",
      "type": "function"
    },
    {
      "inputs": [
        {
          "internalType": "string",
          "name": "_name",
          "type": "string"
        },
        {
          "internalType": "string",
          "name": "_dob",
          "type": "string"
        },
        {
          "internalType": "string",
          "name": "_gender",
          "type": "string"
        },
        {
          "internalType": "string",
          "name": "_aadhaarNumber",
          "type": "string"
        }
      ],
      "name": "updateAadhaarDetails",
      "outputs": [],
      "stateMutability": "nonpayable",
      "type": "function"
    }
  ],
  "bytecode": "0x608060405234801561001057600080fd5b50611027806100206000396000f3fe608060405234801561001057600080fd5b50600436106100575760003560e01c8063037877651461005c578063509183c51461007857806355f1f3dc146100ab57806361d64c35146100db5780637d9ca0f7146100e5575b600080fd5b61007660048036038101906100719190610ba7565b610101565b005b610092600480360381019061008d9190610b7e565b610231565b6040516100a29493929190610d94565b60405180910390f35b6100c560048036038101906100c09190610b7e565b610481565b6040516100d29190610e15565b60405180910390f35b6100e3610721565b005b6100ff60048036038101906100fa9190610ba7565b610835565b005b6040518060800160405280858152602001848152602001838152602001828152506000803373ffffffffffffffffffffffffffffffffffffffff1673ffffffffffffffffffffffffffffffffffffffff168152602001908152602001600020600082015181600001908051906020019061017c9291906109f6565b5060208201518160010190805190602001906101999291906109f6565b5060408201518160020190805190602001906101b69291906109f6565b5060608201518160030190805190602001906101d39291906109f6565b509050503373ffffffffffffffffffffffffffffffffffffffff167f1b7ad29eb005eef9013b7f3927ed898225f4aca8458c12a7d88184a583921175858585856040516102239493929190610d94565b60405180910390a250505050565b600060205280600052604060002060009150905080600001805461025490610f39565b80601f016020809104026020016040519081016040528092919081815260200182805461028090610f39565b80156102cd5780601f106102a2576101008083540402835291602001916102cd565b820191906000526020600020905b8154815290600101906020018083116102b057829003601f168201915b5050505050908060010180546102e290610f39565b80601f016020809104026020016040519081016040528092919081815260200182805461030e90610f39565b801561035b5780601f106103305761010080835404028352916020019161035b565b820191906000526020600020905b81548152906001019060200180831161033e57829003601f168201915b50505050509080600201805461037090610f39565b80601f016020809104026020016040519081016040528092919081815260200182805461039c90610f39565b80156103e95780601f106103be576101008083540402835291602001916103e9565b820191906000526020600020905b8154815290600101906020018083116103cc57829003601f168201915b5050505050908060030180546103fe90610f39565b80601f016020809104026020016040519081016040528092919081815260200182805461042a90610f39565b80156104775780601f1061044c57610100808354040283529160200191610477565b820191906000526020600020905b81548152906001019060200180831161045a57829003601f168201915b5050505050905084565b610489610a7c565b6000808373ffffffffffffffffffffffffffffffffffffffff1673ffffffffffffffffffffffffffffffffffffffff1681526020019081526020016000206040518060800160405290816000820180546104e290610f39565b80601f016020809104026020016040519081016040528092919081815260200182805461050e90610f39565b801561055b5780601f106105305761010080835404028352916020019161055b565b820191906000526020600020905b81548152906001019060200180831161053e57829003601f168201915b5050505050815260200160018201805461057490610f39565b80601f01602080910402602001604051908101604052809291908181526020018280546105a090610f39565b80156105ed5780601f106105c2576101008083540402835291602001916105ed565b820191906000526020600020905b8154815290600101906020018083116105d057829003601f168201915b5050505050815260200160028201805461060690610f39565b80601f016020809104026020016040519081016040528092919081815260200182805461063290610f39565b801561067f5780601f106106545761010080835404028352916020019161067f565b820191906000526020600020905b81548152906001019060200180831161066257829003601f168201915b5050505050815260200160038201805461069890610f39565b80601f01602080910402602001604051908101604052809291908181526020018280546106c490610f39565b80156107115780601f106106e657610100808354040283529160200191610711565b820191906000526020600020905b8154815290600101906020018083116106f457829003601f168201915b5050505050815250509050919050565b60008060003373ffffffffffffffffffffffffffffffffffffffff1673ffffffffffffffffffffffffffffffffffffffff168152602001908152602001600020600301805461076f90610f39565b905014156107b2576040517f08c379a00000000000000000000000000000000000000000000000000000000081526004016107a990610df5565b60405180910390fd5b6000803373ffffffffffffffffffffffffffffffffffffffff1673ffffffffffffffffffffffffffffffffffffffff168152602001908152602001600020600080820160006108019190610aa4565b6001820160006108119190610aa4565b6002820160006108219190610aa4565b6003820160006108319190610aa4565b5050565b60008060003373ffffffffffffffffffffffffffffffffffffffff1673ffffffffffffffffffffffffffffffffffffffff168152602001908152602001600020600301805461088390610f39565b905014156108c6576040517f08c379a00000000000000000000000000000000000000000000000000000000081526004016108bd90610df5565b60405180910390fd5b6040518060800160405280858152602001848152602001838152602001828152506000803373ffffffffffffffffffffffffffffffffffffffff1673ffffffffffffffffffffffffffffffffffffffff16815260200190815260200160002060008201518160000190805190602001906109419291906109f6565b50602082015181600101908051906020019061095e9291906109f6565b50604082015181600201908051906020019061097b9291906109f6565b5060608201518160030190805190602001906109989291906109f6565b509050503373ffffffffffffffffffffffffffffffffffffffff167f1b7ad29eb005eef9013b7f3927ed898225f4aca8458c12a7d88184a583921175858585856040516109e89493929190610d94565b60405180910390a250505050565b828054610a0290610f39565b90600052602060002090601f016020900481019282610a245760008555610a6b565b82601f10610a3d57805160ff1916838001178555610a6b565b82800160010185558215610a6b579182015b82811115610a6a578251825591602001919060010190610a4f565b5b509050610a789190610ae4565b5090565b6040518060800160405280606081526020016060815260200160608152602001606081525090565b508054610ab090610f39565b6000825580601f10610ac25750610ae1565b601f016020900490600052602060002090810190610ae09190610ae4565b5b50565b5b80821115610afd576000816000905550600101610ae5565b5090565b6000610b14610b0f84610e68565b610e37565b905082815260208101848484011115610b2c57600080fd5b610b37848285610ef7565b509392505050565b600081359050610b4e81610fda565b92915050565b600082601f830112610b6557600080fd5b8135610b75848260208601610b01565b91505092915050565b600060208284031215610b9057600080fd5b6000610b9e84828501610b3f565b91505092915050565b60008060008060808587031215610bbd57600080fd5b600085013567ffffffffffffffff811115610bd757600080fd5b610be387828801610b54565b945050602085013567ffffffffffffffff811115610c0057600080fd5b610c0c87828801610b54565b935050604085013567ffffffffffffffff811115610c2957600080fd5b610c3587828801610b54565b925050606085013567ffffffffffffffff811115610c5257600080fd5b610c5e87828801610b54565b91505092959194509250565b6000610c7582610e98565b610c7f8185610ea3565b9350610c8f818560208601610f06565b610c9881610fc9565b840191505092915050565b6000610cae82610e98565b610cb88185610eb4565b9350610cc8818560208601610f06565b610cd181610fc9565b840191505092915050565b6000610ce9601983610eb4565b91507f416164686161722064657461696c73206e6f7420666f756e64000000000000006000830152602082019050919050565b60006080830160008301518482036000860152610d398282610c6a565b91505060208301518482036020860152610d538282610c6a565b91505060408301518482036040860152610d6d8282610c6a565b91505060608301518482036060860152610d878282610c6a565b9150508091505092915050565b60006080820190508181036000830152610dae8187610ca3565b90508181036020830152610dc28186610ca3565b90508181036040830152610dd68185610ca3565b90508181036060830152610dea8184610ca3565b905095945050505050565b60006020820190508181036000830152610e0e81610cdc565b9050919050565b60006020820190508181036000830152610e2f8184610d1c565b905092915050565b6000604051905081810181811067ffffffffffffffff82111715610e5e57610e5d610f9a565b5b8060405250919050565b600067ffffffffffffffff821115610e8357610e82610f9a565b5b601f19601f8301169050602081019050919050565b600081519050919050565b600082825260208201905092915050565b600082825260208201905092915050565b6000610ed082610ed7565b9050919050565b600073ffffffffffffffffffffffffffffffffffffffff82169050919050565b82818337600083830152505050565b60005b83811015610f24578082015181840152602081019050610f09565b83811115610f33576000848401525b50505050565b60006002820490506001821680610f5157607f821691505b60208210811415610f6557610f64610f6b565b5b50919050565b7f4e487b7100000000000000000000000000000000000000000000000000000000600052602260045260246000fd5b7f4e487b7100000000000000000000000000000000000000000000000000000000600052604160045260246000fd5b6000601f19601f8301169050919050565b610fe381610ec5565b8114610fee57600080fd5b5056fea2646970667358221220655532de2a5769c1cc4719036d107777cd1ed73325d43f9afc7525045087c88364736f6c63430008000033",
  "linkReferences": {},
  "deployedLinkReferences": {}
}